:020000040800F2
:1000000000280020ED130008451300084B130008DA
:1000100051130008571300085D130008000000008A
:100020000000000000000000000000006313000852
:100030006F130008000000007B13000887130008FE
:10004000351400083514000835140008351400086C
:10005000351400083514000835140008351400085C
:10006000351400083514000835140008351400084C
:10007000351400083514000835140008351400083C
:10008000351400083514000835140008351400082C
:10009000351400083514000835140008351400081C
:1000A000351400083514000835140008351400080C
:1000B00095130008351400080000000035140008EE
:1000C000351400080000000000000000351400088E
:1000D000000000003514000835140008000000007E
:1000E000351400083514000835140008000000001D
:1000F0000000000000000000000000000000000000
:0C01000000000000000000005FF808F1A3
:10010C0010B5054C237833B9044B13B10448AFF345
:10011C0000800123237010BD6C0000200000000043
:10012C00842A000808B5034B1BB103490348AFF3FD
:10013C00008008BD0000000070000020842A000828
:10014C0080B500AF0B4B09221A600A4B09225A608A
:10015C00094B01221A600021002000F09FFA0121B6
:10016C00002000F09BFA0221FA2001F04DF800BFAC
:10017C0080BD00BF98000020A000002080B582B098
:10018C0000AF78604C4B1B684C4A82FB0312521137
:10019C00DB17D01A484B5B68484A82FB031252119A
:1001AC00DB17D31A194600F0EFFF454A7B6852F86B
:1001BC0023300A3B032B7AD801A252F823F000BF5C
:1001CC00DD010008FD010008390200087502000875
:1001DC007968002000F062FA394A7B680B2142F8FA
:1001EC002310384B1B687968184601F00DF85EE057
:1001FC007968002000F052FA334A7B6852F82330B9
:10020C00012B0AD12E4A7B680D2142F823102D4B6D
:10021C009B687968184600F0F7FF002000F020FA80
:10022C000346012B3ED1FFF78BFF3BE079680120A1
:10023C0000F034FA244A7B6852F82330012B0AD19F
:10024C001F4A7B680B2142F823101E4B1B687968F0
:10025C00184600F0D9FF002000F002FA0346012BEB
:10026C0022D1FFF76DFF1FE07968022000F016FA2B
:10027C00154A7B6852F82330012B0AD1104A7B684F
:10028C000C2142F823100F4B5B687968184600F07C
:10029C00BBFF002000F0E4F90346012B06D1FFF769
:1002AC004FFF03E000BF02E000BF00E000BF00BF53
:1002BC000837BD4680BD00BF040100201F85EB51EF
:1002CC0098000020880000201401002080B483B026
:1002DC0000AF78600E4B1B6801330D4A13600D4B59
:1002EC001B680B4A12684FF47A7101FB02F213443B
:1002FC00094A934207D9074A7B6852F823305B427C
:10030C001A46034B1A6000BF0C37BD4680BC7047C1
:10031C0094000020880000209F86010080B500AF6B
:10032C00824B1B68032B00F0A380032B00F2FC8094
:10033C00012B02D0022B4ED0F6E07D4B9B68012B9B
:10034C0002D1002000F056FB7A4B1B687A4A1268E7
:10035C004FF47A7101FB02F21344784AA2FB032397
:10036C009B091A46714B1B681946104600F00CFF8E
:10037C00002000F075F90346012B0DD16B4B0222C6
:10038C001A600021012000F089F90121012000F000
:10039C0085F9694B00221A60012000F061F90346CF
:1003AC00012B02D10020FFF791FF022000F058F939
:1003BC000346012B40F0B3805E4B1B685E4A12680B
:1003CC004FF47A7101FB02F213445A4A13605A4BF0
:1003DC0000221A60A3E0564B9B68012B02D101202E
:1003EC0000F008FB534B5B68534A12684FF47A7168
:1003FC0001FB02F21344514AA2FB03239B091A4648
:10040C004A4B1B681946104600F0BEFE002000F057
:10041C0027F90346012B0DD1444B03221A6000210E
:10042C00022000F03BF90121022000F037F9424B89
:10043C0000221A60012000F013F90346012B02D1AF
:10044C000120FFF743FF022000F00AF90346012BBD
:10045C0067D1384B5B68384A12684FF47A7101FBEC
:10046C0002F21344334A5360334B00221A6058E0B3
:10047C002F4B9B68012B02D1022000F0BBFA2D4BB5
:10048C009B682D4A12684FF47A7101FB02F21344F7
:10049C002A4AA2FB03239B091A46244B1B681946C4
:1004AC00104600F071FE002000F0DAF80346012B34
:1004BC0017D1234B0B221A601E4B1B6800211846C8
:1004CC0000F0A2FE1E4B0D225A601A4B9B680121B4
:1004DC00184600F099FE154B00221A60164B0022AC
:1004EC001A60012000F0BCF80346012B02D1022057
:1004FC00FFF7ECFE022000F0B3F80346012B12D1FB
:10050C000C4B9B680C4A12684FF47A7101FB02F297
:10051C001344084A9360084B00221A6003E000BFA2
:10052C0002E000BF00E000BF00BF80BDA0000020C3
:10053C00140100208800002094000020D34D62108C
:10054C009800002080B483B000AF0346FB71FB79A8
:10055C00034A0121D15400BF0C37BD4680BC704703
:10056C00B400002080B582B000AF00237B6062E055
:10057C00354A7B6813441978344A7B6813440A461D
:10058C001A70334A7B6852F8232032497B6831F861
:10059C0013301946104601F035FA034619462A4A1B
:1005AC007B6813440A461A70274A7B6813441A78EE
:1005BC0026497B680B441B789A4239D1264A7B68C2
:1005CC0013441A7820497B680B441B789A4219D043
:1005DC001D4A7B68134419781F4A7B6813440A46EA
:1005EC001A701D4A7B6813441B78002B20D17B6842
:1005FC00DBB21846FFF7A6FF184A7B681344642247
:10060C001A7015E0154A7B6813441B78013BD9B26C
:10061C00124A7B6813440A461A70104A7B681344CA
:10062C001B78002B04D10C4A7B68134401221A70EE
:10063C007B6801337B607B68022B99D900BF00BFBC
:10064C000837BD4680BD00BFAC000020B0000020C4
:10065C00000000200C000020A8000020B8000020A2
:10066C0080B483B000AF0346FB71FB79022B01D938
:10067C0000230BE0FB79084AD35C012B05D1FB79F5
:10068C00054A0021D154012300E0002318460C3701
:10069C00BD4680BC704700BFB400002080B582B05E
:1006AC0000AF786039607B68002B03D07B68012B2E
:1006BC0041D081E063493A6813465B0013449B00C8
:1006CC000B44186860493A6813465B0013445B009E
:1006DC000B441B880022194601F0ABF959493A68C2
:1006EC0013465B0013449B000B44043318685649B3
:1006FC003A6813465B0013445B000B4402331B88BF
:10070C000122194601F095F94E493A6813465B00EF
:10071C0013449B000B44083318684B493A68134642
:10072C005B0013445B000B4404331B880122194605
:10073C0001F07FF981E043493A6813465B001344AA
:10074C009B000B44186840493A6813465B001344FD
:10075C005B000B441B880122194601F06AF93949E8
:10076C003A6813465B0013449B000B44043318682F
:10077C0035493A6813465B0013445B000B44023363
:10078C001B880022194601F054F92E493A68134689
:10079C005B0013449B000B44083318682A493A68E1
:1007AC0013465B0013445B000B4404331B8801228B
:1007BC00194601F03EF940E022493A6813465B00C5
:1007CC0013449B000B4418681F493A6813465B009E
:1007DC0013445B000B441B880122194601F029F9D4
:1007EC0018493A6813465B0013449B000B440433CE
:1007FC00186815493A6813465B0013445B000B44B8
:10080C0002331B880122194601F013F90D493A688D
:10081C0013465B0013449B000B44083318680A49C9
:10082C003A6813465B0013445B000B4404331B888B
:10083C000022194601F0FDF800BF00BF0837BD4685
:10084C0080BD00BF140000202C00002080B582B0B9
:10085C0000AF786039607B68002B03D07B68012B7C
:10086C0040D07FE061493A6813465B0013449B001B
:10087C000B4418685E493A6813465B0013445B00EE
:10088C000B441B88194601F0ECF858493A6813469A
:10089C005B0013449B000B440433186854493A68BA
:1008AC0013465B0013445B000B4402331B8801228C
:1008BC00194601F0BEF84D493A6813465B001344E3
:1008CC009B000B440833186849493A6813465B008F
:1008DC0013445B000B4404331B880122194601F0BE
:1008EC00A8F87FE041493A6813465B0013449B002B
:1008FC000B4418683E493A6813465B0013445B008E
:10090C000B441B880122194601F093F837493A68C9
:10091C0013465B0013449B000B44043318683449A2
:10092C003A6813465B0013445B000B4402331B888C
:10093C00194601F096F82D493A6813465B001344AA
:10094C009B000B440833186829493A6813465B002E
:10095C0013445B000B4404331B880122194601F03D
:10096C0068F83FE021493A6813465B0013449B004A
:10097C000B4418681E493A6813465B0013445B002D
:10098C000B441B880122194601F053F817493A68A9
:10099C0013465B0013449B000B4404331868144942
:1009AC003A6813465B0013445B000B4402331B880C
:1009BC000122194601F03DF80C493A6813465B00D8
:1009CC0013449B000B440833186809493A681346D2
:1009DC005B0013445B000B4404331B88194601F085
:1009EC0040F800BF00BF0837BD4680BD1400002092
:1009FC002C00002080B582B000AF786000217868B0
:100A0C00FFF724FF01217868FFF720FF0221FA206D
:100A1C0000F0FAFB00BF0837BD4680BD80B500AFC3
:100A2C001B4B41F288321A60194B4FF4FA625A6030
:100A3C00174B40F6B8329A60164B0B221A60144BC7
:100A4C001B680021184600F0DFFB124B0D225A6088
:100A5C000F4B9B680121184600F0D6FB0321322076
:100A6C0000F0D2FB00F0E2FC00F018F800F09EF869
:100A7C0000F050F8084801F03BFC0020FFF77EFB2B
:100A8C000120FFF77BFBFFF749FC00F05BFBF4E771
:100A9C008800002098000020BC00002080B590B099
:100AAC0000AF07F1180328220021184601F0B8FF07
:100ABC003B1D00221A605A609A60DA601A610223A8
:100ACC00BB610123BB621023FB6200237B6307F134
:100ADC001803184600F0DEFF0346002B01D000F08F
:100AEC00C7F80F237B600023BB600023FB6000234F
:100AFC003B6100237B613B1D0021184601F04CFA41
:100B0C000346002B01D000F0B3F800BF4037BD46C0
:100B1C0080BD000080B586B000AF07F1080300224D
:100B2C001A605A609A60DA603B4600221A605A607A
:100B3C001D4B4FF080421A601B4B41F63F725A60BE
:100B4C00194B00229A60184B0922DA60164B0022CE
:100B5C001A61154B00229A61134801F079FB034688
:100B6C00002B01D000F084F84FF48053BB6007F1E8
:100B7C00080319460C4801F00FFD0346002B01D069
:100B8C0000F076F800233B6000237B603B4619465F
:100B9C00054801F0DBFE0346002B01D000F068F89D
:100BAC0000BF1837BD4680BDBC00002080B586B0A4
:100BBC0000AF07F1080300221A605A609A60DA60ED
:100BCC00284B9B69274A43F004039361254B9B698F
:100BDC0003F004037B607B68224B9B69214A43F042
:100BEC00080393611F4B9B6903F008033B603B6850
:100BFC0000227E211C4800F01CFF002240F2FF71F5
:100C0C001A4800F016FF7E23BB600123FB60002313
:100C1C003B6102237B6107F108031946124800F07F
:100C2C0075FD40F2FF73BB600123FB6000233B6149
:100C3C0002237B6107F1080319460C4800F066FD9E
:100C4C004FF4E053BB600023FB6001233B6107F1D1
:100C5C0008031946044800F059FD00BF1837BD467B
:100C6C0080BD00BF0010024000080140000C014094
:100C7C0080B400AF72B600BFFEE7000080B582B052
:100C8C0000AF78607B68092B00F2808101A252F8DA
:100C9C0023F000BFC90C0008110D0008590D000805
:100CAC00A10D0008E90D0008310E0008790E0008AE
:100CBC00C10E0008090F0008510F00080022012185
:100CCC00C64800F0B6FE00220221C44800F0B1FE76
:100CDC0000220421C14800F0ACFE00220821BF48CC
:100CEC0000F0A7FE00221021BC4800F0A2FE00225A
:100CFC002021BA4800F09DFE01224021B74800F0A7
:100D0C0098FE67E101220121B44800F092FE002216
:100D1C000221B24800F08DFE00220421AF4800F001
:100D2C0088FE01220821AD4800F083FE012210212B
:100D3C00AA4800F07EFE01222021A84800F079FE8E
:100D4C0001224021A54800F074FE43E1002201215C
:100D5C00A24800F06EFE00220221A04800F069FEBD
:100D6C00012204219D4800F064FE002208219B48CA
:100D7C0000F05FFE00221021984800F05AFE01227C
:100D8C002021964800F055FE00224021934800F0A7
:100D9C0050FE1FE100220121904800F04AFE002283
:100DAC0002218E4800F045FE002204218B4800F001
:100DBC0040FE00220821894800F03BFE0122102150
:100DCC00864800F036FE01222021844800F031FED6
:100DDC0000224021814800F02CFEFBE00122012181
:100DEC007E4800F026FE002202217C4800F021FE05
:100DFC0000220421794800F01CFE012208217748CA
:100E0C0000F017FE01221021744800F012FE00229F
:100E1C002021724800F00DFE002240216F4800F0A6
:100E2C0008FED7E0002201216C4800F002FE0122EE
:100E3C0002216A4800F0FDFD00220421674800F001
:100E4C00F8FD00220821654800F0F3FD0122102175
:100E5C00624800F0EEFD00222021604800F0E9FD20
:100E6C00002240215D4800F0E4FDB3E000220121A6
:100E7C005A4800F0DEFD01220221584800F0D9FD4D
:100E8C0000220421554800F0D4FD002208215348CB
:100E9C0000F0CFFD00221021504800F0CAFD0022C6
:100EAC0020214E4800F0C5FD002240214B4800F0A7
:100EBC00C0FD8FE000220121484800F0BAFD00225D
:100ECC000221464800F0B5FD00220421434800F001
:100EDC00B0FD01220821414800F0ABFD0122102198
:100EEC003E4800F0A6FD012220213C4800F0A1FD67
:100EFC0001224021394800F09CFD6BE000220121C9
:100F0C00364800F096FD00220221344800F091FD95
:100F1C0000220421314800F08CFD002208212F48CA
:100F2C0000F087FD002210212C4800F082FD0022E9
:100F3C0020212A4800F07DFD00224021274800F0A6
:100F4C0078FD47E000220121244800F072FD0022C8
:100F5C000221224800F06DFD002204211F4800F000
:100F6C0068FD002208211D4800F063FD01221021BC
:100F7C001A4800F05EFD00222021184800F059FDAF
:100F8C0000224021154800F054FD23E000220121ED
:100F9C00124800F04EFD01220221104800F049FDDC
:100FAC00012204210D4800F044FD002208210B48C9
:100FBC0000F03FFD00221021084800F03AFD00220D
:100FCC002021064800F035FD00224021034800F0A6
:100FDC0030FD00BF00BF0837BD4680BD000C01408E
:100FEC0080B582B000AF78607B68022B4BD07B68F9
:100FFC00022B69DC7B68002B03D07B68012B21D092
:10100C0062E0444B1B68444A11880022184600F0E9
:10101C0010FD404B5B68404A51880122184600F095
:10102C0008FD3C4B9B683C4A91880122184600F015
:10103C0000FD384BDB68384AD1880122184600F095
:10104C00F8FC62E0334B1B68334A118801221846C6
:10105C0000F0EFFC2F4B5B682F4A5188002218469A
:10106C0000F0E7FC2B4B9B682B4A91880122184619
:10107C0000F0DFFC274BDB68274AD1880122184699
:10108C0000F0D7FC41E0234B1B68234A1188012256
:10109C00184600F0CEFC1F4B5B681F4A518801229A
:1010AC00184600F0C6FC1B4B9B681B4A918800221B
:1010BC00184600F0BEFC174BDB68174AD18801229A
:1010CC00184600F0B6FC20E0124B1B68124A11883F
:1010DC000122184600F0ADFC0E4B5B680E4A51889D
:1010EC000122184600F0A5FC0A4B9B680A4A91881D
:1010FC000122184600F09DFC064BDB68064AD1889D
:10110C000022184600F095FC00BF00BF0837BD4612
:10111C0080BD00BF380000204800002080B582B0A0
:10112C0000AF7860064A7B6852F823301846FFF708
:10113C00A5FD7868FFF754FF00BF0837BD4680BD9A
:10114C005000002080B500AF0D4B1B681846FFF710
:10115C00E5FF0C4BDB68012B0FD10321322000F093
:10116C0053F8074B1B680133054A1360044B1B688B
:10117C00032B02D9024B00221A6000BF80BD00BFB6
:10118C00A40000201401002080B483B000AF78606C
:10119C0039607B681A4A82FB03129210DB17D31A50
:1011AC001A46184B1A607A68154B83FB0213991078
:1011BC00D317C91A0B469B000B445B00D11A0A4685
:1011CC00104B5A603B680E4A82FB03129210DB17DD
:1011DC00D31A1A460B4B9A603A68094B83FB0213DD
:1011EC009910D317C91A0B469B000B445B00D11AFC
:1011FC000A46044BDA6000BF0C37BD4680BC704712
:10120C00676666665000002080B483B000AF7860DB
:10121C0039607B68094A82FB03129210DB17D21AE1
:10122C0007493B6841F82320064A3B68002142F8F5
:10123C00231000BF0C37BD4680BC704767666666DE
:10124C00040100201401002080B483B000AF78604A
:10125C000C4A7B6852F823305A1E0A497B6841F8C5
:10126C002320084A7B6852F82330002B04DC064A02
:10127C007B68012142F8231000BF0C37BD4680BCAF
:10128C00704700BF040100201401002080B485B019
:10129C0000AF154B9B69144A43F001039361124B49
:1012AC009B6903F00103BB60BB680F4BDB690E4A03
:1012BC0043F08053D3610C4BDB6903F080537B60AC
:1012CC007B680A4B5B68FB60FB6823F0E063FB60A8
:1012DC00FB6843F00073FB60044AFB68536000BF7B
:1012EC001437BD4680BC704700100240000001401E
:1012FC0080B584B000AF78607B681B68B3F1804F19
:10130C0013D10C4BDB690B4A43F00103D361094B3E
:10131C00DB6903F00103FB60FB68002200211C2049
:10132C0000F0BDF91C2000F0D6F900BF1037BD4607
:10133C0080BD00BF0010024080B400AFFEE780B457
:10134C0000AFFEE780B400AFFEE780B400AFFEE76D
:10135C0080B400AFFEE780B400AF00BFBD4680BCD8
:10136C00704780B400AF00BFBD4680BC704780B4EE
:10137C0000AF00BFBD4680BC704780B500AF00F029
:10138C009BF800BF80BD000080B500AF024800F0A4
:10139C00FBFF00BF80BD00BFBC00002080B400AFCD
:1013AC0000BFBD4680BC704780B582B000AF78608E
:1013BC007B681B68B3F1804F0DD10020FFF744FF11
:1013CC000120FFF741FF0220FFF73EFF0320FFF74C
:1013DC003BFFFFF7C7F800BF0837BD4680BD0000D4
:1013EC00FFF7DCFF0B480C490C4A002302E0D458F1
:1013FC00C4500433C4188C42F9D3094A094C002355
:10140C0001E013600432A242FBD301F011FBFFF7A1
:10141C0005FB7047000000206C000020C82A000863
:10142C006C00002028010020FEE7000080B500AF12
:10143C00084B1B68074A43F010031360032000F0AD
:10144C0023F90F2000F008F8FFF720FF00231846BF
:10145C0080BD00BF0020024080B582B000AF786034
:10146C00124B1A68124B1B7819464FF47A73B3FB64
:10147C00F1F3B2FBF3F3184600F03BF90346002BF3
:10148C0001D001230EE07B680F2B0AD8002279686B
:10149C004FF0FF3000F003F9064A7B68136000231D
:1014AC0000E0012318460837BD4680BD60000020CF
:1014BC00680000206400002080B400AF054B1B784E
:1014CC001A46054B1B681344034A136000BFBD4604
:1014DC0080BC7047680000202401002080B400AF5D
:1014EC00024B1B681846BD4680BC70472401002087
:1014FC0080B485B000AF78607B6803F00703FB60B5
:10150C000C4BDB68BB60BA684FF6FF031340BB6043
:10151C00FB681A02BB68134343F0BF6343F4003308
:10152C00BB60044ABB68D36000BF1437BD4680BCA7
:10153C00704700BF00ED00E080B400AF044BDB68E7
:10154C001B0A03F007031846BD4680BC704700BF5A
:10155C0000ED00E080B483B000AF0346FB7197F957
:10156C000730002B0BDBFB7903F01F02064997F9C0
:10157C0007305B09012000FA02F241F8232000BF7A
:10158C000C37BD4680BC704700E100E080B483B0EE
:10159C0000AF03463960FB7197F90730002B0ADB6B
:1015AC003B68DAB20C4997F907301201D2B20B44FE
:1015BC0083F800230AE03B68DAB20849FB7903F0B0
:1015CC000F03043B1201D2B20B441A7600BF0C3746
:1015DC00BD4680BC704700BF00E100E000ED00E0BC
:1015EC0080B489B000AFF860B9607A60FB6803F032
:1015FC000703FB61FB69C3F10703042B28BF04231A
:10160C00BB61FB690433062B02D9FB69033B00E089
:10161C0000237B614FF0FF32BB6902FA03F3DA431C
:10162C00BB681A407B699A404FF0FF317B6901FA25
:10163C0003F3D9437B680B40134318462437BD464C
:10164C0080BC704780B582B000AF78607B68013B8E
:10165C00B3F1807F01D301230FE00A4A7B68013B81
:10166C0053600F214FF0FF30FFF790FF054B002226
:10167C009A60044B07221A60002318460837BD46AF
:10168C0080BD00BF10E000E080B582B000AF786094
:10169C007868FFF72DFF00BF0837BD4680BD80B5C9
:1016AC0086B000AF0346B9607A60FB7300237B61A0
:1016BC00FFF742FF78617A68B9687869FFF790FFA5
:1016CC00024697F90F3011461846FFF75FFF00BF2F
:1016DC001837BD4680BD80B582B000AF0346FB71A4
:1016EC0097F907301846FFF735FF00BF0837BD469E
:1016FC0080BD80B582B000AF78607868FFF7A2FF3C
:10170C00034618460837BD4680BD000080B48BB038
:10171C0000AF7860396000237B6200233B6261E19B
:10172C0001227B6A02FA03F3FB613B681B68FA69CE
:10173C001340BB61BA69FB699A4240F050813B6827
:10174C005B68974A93425ED0954A934275D8954A06
:10175C00934258D0934A93426FD8934A934252D0B3
:10176C00914A934269D8914A93424CD08F4A934202
:10177C0063D88F4A934246D08D4A93425DD8122B40
:10178C002AD8122B59D801A252F823F013180008AA
:10179C00ED170008FF17000841180008471800084B
:1017AC004718000847180008471800084718000891
:1017BC004718000847180008471800084718000881
:1017CC004718000847180008471800084718000871
:1017DC00F517000809180008764A934213D02CE03C
:1017EC003B68DB683B6229E03B68DB6804333B62A7
:1017FC0024E03B68DB6808333B621FE03B68DB6836
:10180C000C333B621AE03B689B68002B02D104232B
:10181C003B6213E03B689B68012B05D108233B62BC
:10182C007B68FA691A6109E008233B627B68FA69F4
:10183C005A6103E000233B6200E000BFBB69FF2B51
:10184C0001D87B6801E07B6804337B61BB69FF2BAB
:10185C0002D87B6A9B0002E07B6A083B9B003B61E1
:10186C007B691A680F213B6901FA03F3DB431A40C9
:10187C00396A3B6901FA03F31A437B691A603B68C6
:10188C005B6803F08053002B00F0A9804A4B9B69E6
:10189C00494A43F001039361474B9B6903F00103F1
:1018AC00BB60BB68454A7B6A9B08023352F8233005
:1018BC00FB607B6A03F003039B000F2202FA03F325
:1018CC00DB43FA681340FB607B683D4A93420DD0C2
:1018DC007B683C4A934207D07B683B4A934201D1D8
:1018EC00022304E0032302E0012300E000237A6AD0
:1018FC0002F0030292009340FA681343FB602F49F5
:10190C007B6A9B080233FA6841F823203B685B68CA
:10191C0003F48013002B06D02C4B9A682B49BB691F
:10192C0013438B6006E0294B9A68BB69DB4327495C
:10193C0013408B603B685B6803F40013002B06D0EC
:10194C00224BDA682149BB691343CB6006E01F4B7D
:10195C00DA68BB69DB431D491340CB603B685B68AD
:10196C0003F40033002B06D0184B5A681749BB6997
:10197C0013434B6006E0154B5A68BB69DB431349B4
:10198C0013404B603B685B6803F48033002B1FD023
:10199C000E4B1A680D49BB6913430B601FE000BF67
:1019AC000000321000003110000022100000211045
:1019BC000000121000001110001002400000014045
:1019CC0000080140000C01400010014000040140DF
:1019DC000B4B1A68BB69DB43094913400B607B6AEC
:1019EC0001337B623B681A687B6A22FA03F3002B93
:1019FC007FF496AE00BF00BF2C37BD4680BC70474D
:101A0C000004014080B485B000AF78600B467B8049
:101A1C007B689A687B881340002B02D00123FB73F0
:101A2C0001E00023FB73FB7B18461437BD4680BCDA
:101A3C00704780B483B000AF78600B467B80134650
:101A4C007B707B78002B03D07A887B681A6103E06B
:101A5C007B881A047B681A6100BF0C37BD4680BCBA
:101A6C00704780B485B000AF78600B467B807B6894
:101A7C00DB68FB607A88FB6813401A04FB68D94367
:101A8C007B880B401A437B681A6100BF1437BD4634
:101A9C0080BC704780B586B000AF78607B68002B47
:101AAC0001D1012372E27B681B6803F00103002B58
:101ABC0000F08780924B5B6803F00C03042B0CD076
:101ACC008F4B5B6803F00C03082B12D18C4B5B68BB
:101ADC0003F48033B3F5803F0BD1894B1B6803F4BF
:101AEC000033002B6CD07B685B68002B68D1012322
:101AFC004CE27B685B68B3F5803F06D1804B1B687A
:101B0C007F4A43F4803313602EE07B685B68002BC4
:101B1C000CD17B4B1B687A4A23F480331360784BCF
:101B2C001B68774A23F4802313601DE07B685B6895
:101B3C00B3F5A02F0CD1724B1B68714A43F4802370
:101B4C0013606F4B1B686E4A43F4803313600BE0D9
:101B5C006B4B1B686A4A23F480331360684B1B6819
:101B6C00674A23F4802313607B685B68002B13D0D7
:101B7C00FFF7B4FC386108E0FFF7B0FC02463B69A4
:101B8C00D31A642B01D9032300E25D4B1B6803F4C9
:101B9C000033002BF0D014E0FFF7A0FC386108E014
:101BAC00FFF79CFC02463B69D31A642B01D9032333
:101BBC00ECE1534B1B6803F40033002BF0D100E035
:101BCC0000BF7B681B6803F00203002B63D04C4BF7
:101BDC005B6803F00C03002B0BD0494B5B6803F0E4
:101BEC000C03082B1CD1464B5B6803F48033002B91
:101BFC0016D1434B1B6803F00203002B05D07B6806
:101C0C001B69012B01D00123C0E13D4B1B6823F064
:101C1C00F8027B685B69DB00394913430B603AE0DF
:101C2C007B681B69002B20D0364B01221A60FFF712
:101C3C0055FC386108E0FFF751FC02463B69D31AAA
:101C4C00022B01D90323A1E12D4B1B6803F00203E6
:101C5C00002BF0D02A4B1B6823F0F8027B685B69E1
:101C6C00DB00274913430B6015E0264B00221A605A
:101C7C00FFF734FC386108E0FFF730FC02463B69A3
:101C8C00D31A022B01D9032380E11D4B1B6803F0EF
:101C9C000203002BF0D17B681B6803F00803002BB8
:101CAC003AD07B689B69002B19D0174B01221A6024
:101CBC00FFF714FC386108E0FFF710FC02463B69A3
:101CCC00D31A022B01D9032360E10D4B5B6A03F09D
:101CDC000203002BF0D0012000F09CFA1CE00A4B10
:101CEC0000221A60FFF7FAFB38610FE0FFF7F6FBF2
:101CFC0002463B69D31A022B08D9032346E100BFE5
:101D0C00001002400000424280044242924B5B6A47
:101D1C0003F00203002BE9D17B681B6803F004037A
:101D2C00002B00F0A6800023FB758B4BDB6903F0C6
:101D3C008053002B0DD1884BDB69874A43F08053CD
:101D4C00D361854BDB6903F08053BB60BB68012317
:101D5C00FB75824B1B6803F48073002B18D17F4BEF
:101D6C001B687E4A43F480731360FFF7B7FB38613E
:101D7C0008E0FFF7B3FB02463B69D31A642B01D989
:101D8C00032303E1754B1B6803F48073002BF0D025
:101D9C007B68DB68012B06D16F4B1B6A6E4A43F0E4
:101DAC00010313622DE07B68DB68002B0CD16A4BBE
:101DBC001B6A694A23F001031362674B1B6A664A6C
:101DCC0023F0040313621CE07B68DB68052B0CD149
:101DDC00614B1B6A604A43F0040313625E4B1B6A3F
:101DEC005D4A43F0010313620BE05B4B1B6A5A4ADA
:101DFC0023F001031362584B1B6A574A23F0040368
:101E0C0013627B68DB68002B15D0FFF767FB38612A
:101E1C000AE0FFF763FB02463B69D31A41F28832B2
:101E2C00934201D90323B1E04B4B1B6A03F002032D
:101E3C00002BEED014E0FFF751FB38610AE0FFF7FE
:101E4C004DFB02463B69D31A41F28832934201D9C9
:101E5C0003239BE0404B1B6A03F00203002BEED1E3
:101E6C00FB7D012B05D13C4BDB693B4A23F08053B6
:101E7C00D3617B68DB69002B00F08780364B5B6895
:101E8C0003F00C03082B61D07B68DB69022B46D175
:101E9C00334B00221A60FFF721FB386108E0FFF793
:101EAC001DFB02463B69D31A022B01D903236DE0BB
:101EBC00294B1B6803F00073002BF0D17B681B6A65
:101ECC00B3F5803F08D1244B5B6823F400327B6868
:101EDC009B68214913434B601F4B5B6823F47412BE
:101EEC007B68196A7B685B6A0B431B4913434B6025
:101EFC001B4B01221A60FFF7F1FA386108E0FFF77B
:101F0C00EDFA02463B69D31A022B01D903233DE0BB
:101F1C00114B1B6803F00073002BF0D035E0104B15
:101F2C0000221A60FFF7DAFA386108E0FFF7D6FAF8
:101F3C0002463B69D31A022B01D9032326E0064B38
:101F4C001B6803F00073002BF0D11EE07B68DB698B
:101F5C00012B07D1012319E0001002400070004052
:101F6C00600042420B4B5B68FB60FB6803F4803201
:101F7C007B681B6A9A4206D1FB6803F470127B687B
:101F8C005B6A9A4201D0012300E0002318461837FF
:101F9C00BD4680BD0010024080B584B000AF7860B3
:101FAC0039607B68002B01D10123D0E06A4B1B68A0
:101FBC0003F007033A689A4210D9674B1B6823F069
:101FCC00070265493B6813430B60634B1B6803F0C6
:101FDC0007033A689A4201D00123B8E07B681B687A
:101FEC0003F00203002B20D07B681B6803F0040372
:101FFC00002B05D0594B5B68584A43F4E06353609F
:10200C007B681B6803F00803002B05D0534B5B68FF
:10201C00524A43F460535360504B5B6823F0F00218
:10202C007B689B684D4913434B607B681B6803F0CE
:10203C000103002B40D07B685B68012B07D1474B19
:10204C001B6803F40033002B15D101237FE07B6860
:10205C005B68022B07D1414B1B6803F00073002B0C
:10206C0009D1012373E03D4B1B6803F00203002BE5
:10207C0001D101236BE0394B5B6823F003027B68D1
:10208C005B68364913434B60FFF728FAF8600AE0A7
:10209C00FFF724FA0246FB68D31A41F288329342C6
:1020AC0001D9032353E02D4B5B6803F00C027B68D2
:1020BC005B689B009A42EBD1274B1B6803F007032C
:1020CC003A689A4210D2244B1B6823F0070222492B
:1020DC003B6813430B60204B1B6803F007033A6803
:1020EC009A4201D0012332E07B681B6803F00403A1
:1020FC00002B08D0194B5B6823F4E0627B68DB682B
:10210C00164913434B607B681B6803F00803002BD4
:10211C0009D0124B5B6823F460527B681B69DB00AF
:10212C000E4913434B6000F021F802460B4B5B68E1
:10213C001B0903F00F030A49CB5C22FA03F3094A8B
:10214C001360094B1B681846FFF786F900231846E5
:10215C001037BD4680BD00BF002002400010024079
:10216C009C2A0008600000206400002080B487B026
:10217C0000AF0023FB600023BB6000237B610023C6
:10218C007B6000233B611E4B5B68FB60FB6803F0CC
:10219C000C03042B02D0082B03D027E0194B3B6116
:1021AC0027E0FB689B0C03F00F03174AD35C7B60A2
:1021BC00FB6803F48033002B10D0114B5B685B0C75
:1021CC0003F00103114AD35CBB607B680D4A03FB2F
:1021DC0002F2BB68B2FBF3F37B6104E07B680C4A50
:1021EC0002FB03F37B617B693B6102E0054B3B61C6
:1021FC0000BF3B6918461C37BD4680BC704700BF0A
:10220C000010024000127A00AC2A0008BC2A000818
:10221C0000093D0080B485B000AF78600A4B1B68A4
:10222C000A4AA2FB03235B0A7A6802FB03F3FB60F6
:10223C0000BFFB685A1EFA60002BF9D100BF00BF2B
:10224C001437BD4680BC704760000020D34D62102F
:10225C0080B582B000AF78607B68002B01D1012380
:10226C0041E07B6893F83D30DBB2002B06D17B68F4
:10227C00002283F83C207868FFF73AF87B6802224A
:10228C0083F83D207B681A687B6804331946104636
:10229C0000F06EFA7B68012283F846207B680122ED
:1022AC0083F83E207B68012283F83F207B68012263
:1022BC0083F840207B68012283F841207B6801224F
:1022CC0083F842207B68012283F843207B6801223B
:1022DC0083F844207B68012283F845207B68012227
:1022EC0083F83D20002318460837BD4680BD00000A
:1022FC0080B485B000AF78607B6893F83D30DBB27A
:10230C00012B01D0012335E07B68022283F83D20AC
:10231C007B681B68DA687B681B6842F00102DA6034
:10232C007B681B68164A934209D07B681B68B3F123
:10233C00804F04D07B681B68124A934211D17B6892
:10234C001B689B6803F00703FB60FB68062B10D02F
:10235C007B681B681A687B681B6842F001021A6074
:10236C0007E07B681B681A687B681B6842F00102F7
:10237C001A60002318461437BD4680BC704700BF56
:10238C00002C01400004004080B582B000AF7860A2
:10239C007B681B681B6903F00203022B22D17B684C
:1023AC001B68DB6803F00203022B1BD17B681B68E4
:1023BC006FF002021A617B6801221A777B681B6836
:1023CC009B6903F00303002B03D0786800F0B4F989
:1023DC0005E0786800F0A7F9786800F0B6F97B683A
:1023EC0000221A777B681B681B6903F00403042B1B
:1023FC0022D17B681B68DB6803F00403042B1BD120
:10240C007B681B686FF004021A617B6802221A77E2
:10241C007B681B689B6903F44073002B03D07868BE
:10242C0000F08AF905E0786800F07DF9786800F032
:10243C008CF97B6800221A777B681B681B6903F098
:10244C000803082B22D17B681B68DB6803F00803A8
:10245C00082B1BD17B681B686FF008021A617B6824
:10246C0004221A777B681B68DB6903F00303002BDB
:10247C0003D0786800F060F905E0786800F053F953
:10248C00786800F062F97B6800221A777B681B6819
:10249C001B6903F01003102B22D17B681B68DB68CF
:1024AC0003F01003102B1BD17B681B686FF010021C
:1024BC001A617B6808221A777B681B68DB6903F456
:1024CC004073002B03D0786800F036F905E078688B
:1024DC0000F029F9786800F038F97B6800221A7747
:1024EC007B681B681B6903F00103012B0ED17B6811
:1024FC001B68DB6803F00103012B07D17B681B68A9
:10250C006FF001021A617868FEF74EFF7B681B685A
:10251C001B6903F08003802B0ED17B681B68DB6882
:10252C0003F08003802B07D17B681B686FF080025F
:10253C001A61786800F06BFA7B681B681B6903F002
:10254C004003402B0ED17B681B68DB6803F0400313
:10255C00402B07D17B681B686FF040021A617868CA
:10256C0000F0FCF87B681B681B6903F02003202B30
:10257C000ED17B681B68DB6803F02003202B07D18E
:10258C007B681B686FF020021A61786800F036FADD
:10259C0000BF0837BD4680BD80B584B000AF786001
:1025AC0039600023FB737B6893F83C30012B01D11D
:1025BC000223B4E07B68012283F83C207B68022272
:1025CC0083F83D207B681B689B68BB60BB6823F06D
:1025DC007703BB60BB6823F47F43BB607B681B68DD
:1025EC00BA689A603B681B68B3F5005F3ED0B3F5E0
:1025FC00005F00F28780B3F5805F00F08680B3F552
:10260C00805F7FD8702B1AD0702B7BD8602B50D06A
:10261C00602B77D8502B3CD0502B73D8402B58D0F4
:10262C00402B6FD8302B64D0302B6BD8202B60D044
:10263C00202B67D8002B5CD0102B5AD062E07B6823
:10264C0018683B6899683B685A683B68DB6800F01F
:10265C005EF97B681B689B68BB60BB6843F07703C3
:10266C00BB607B681B68BA689A604FE07B6818682F
:10267C003B6899683B685A683B68DB6800F047F92F
:10268C007B681B689A687B681B6842F480429A607E
:10269C003CE07B6818683B6859683B68DB681A4605
:1026AC0000F0BEF87B681B685021184600F015F945
:1026BC002CE07B6818683B6859683B68DB681A46F5
:1026CC0000F0DCF87B681B686021184600F005F907
:1026DC001CE07B6818683B6859683B68DB681A46E5
:1026EC0000F09EF87B681B684021184600F0F5F856
:1026FC000CE07B681A683B681B681946104600F0B2
:10270C00ECF803E00123FB7300E000BF7B680122BF
:10271C0083F83D207B68002283F83C20FB7B184625
:10272C001037BD4680BD80B483B000AF786000BF69
:10273C000C37BD4680BC704780B483B000AF786066
:10274C0000BF0C37BD4680BC704780B483B000AF6F
:10275C00786000BF0C37BD4680BC704780B483B036
:10276C0000AF786000BF0C37BD4680BC70470000DE
:10277C0080B485B000AF786039607B681B68FB6003
:10278C007B68254A934207D07B68B3F1804F03D016
:10279C007B68224A934208D1FB6823F07003FB60EC
:1027AC003B685B68FA681343FB607B681A4A934288
:1027BC0007D07B68B3F1804F03D07B68174A9342F4
:1027CC0008D1FB6823F44073FB603B68DB68FA6854
:1027DC001343FB60FB6823F080023B685B69134387
:1027EC00FB607B68FA681A603B689A687B68DA62FF
:1027FC003B681A687B689A627B68074A934203D1EC
:10280C003B681A697B681A637B6801225A6100BFB6
:10281C001437BD4680BC7047002C014000040040BA
:10282C0080B487B000AFF860B9607A60FB681B6A4F
:10283C007B61FB681B6A23F00102FB681A62FB6870
:10284C009B693B613B6923F0F0033B617B681B0197
:10285C003A6913433B617B6923F00A037B617A6914
:10286C00BB6813437B61FB683A699A61FB687A69C0
:10287C001A6200BF1C37BD4680BC704780B487B05D
:10288C0000AFF860B9607A60FB681B6A7B61FB681B
:10289C001B6A23F01002FB681A62FB689B693B61A0
:1028AC003B6923F470433B617B681B033A69134318
:1028BC003B617B6923F0A0037B61BB681B017A69D8
:1028CC0013437B61FB683A699A61FB687A691A6207
:1028DC0000BF1C37BD4680BC704780B485B000AFCC
:1028EC00786039607B689B68FB60FB6823F0700341
:1028FC00FB603A68FB68134343F00703FB607B689B
:10290C00FA689A6000BF1437BD4680BC704780B42B
:10291C0087B000AFF860B9607A603B60FB689B6879
:10292C007B617B6923F47F437B613B681A027B6884
:10293C001A43BB6813437A6913437B61FB687A695A
:10294C009A6000BF1C37BD4680BC704780B485B010
:10295C0000AF786039607B6893F83C30012B01D173
:10296C00022341E07B68012283F83C207B68022231
:10297C0083F83D207B681B685B68FB607B681B6889
:10298C009B68BB60FB6823F07003FB603B681B68B3
:10299C00FA681343FB607B681B68FA685A607B68B3
:1029AC001B68144A934209D07B681B68B3F1804FB3
:1029BC0004D07B681B68104A93420CD1BB6823F08F
:1029CC008003BB603B685B68BA681343BB607B6881
:1029DC001B68BA689A607B68012283F83D207B688B
:1029EC00002283F83C20002318461437BD4680BCD7
:1029FC00704700BF002C01400004004080B483B03D
:102A0C0000AF786000BF0C37BD4680BC704780B407
:102A1C0083B000AF786000BF0C37BD4680BC7047F8
:102A2C0003460244934200D1704703F8011BF9E7B7
:102A3C0070B500260C4D0D4C641BA410A64209D198
:102A4C0000F01AF800260A4D0A4C641BA410A6428A
:102A5C0005D170BD55F8043B98470136EEE755F8A3
:102A6C00043B98470136F2E7C02A0008C02A000848
:102A7C00C02A0008C42A0008F8B500BFF8BC08BC7E
:102A8C009E467047F8B500BFF8BC08BC9E46704720
:102A9C000000000000000000010203040607080902
:102AAC0002030405060708090A0B0C0D0E0F101083
:042ABC000102000013
:042AC00031010008D8
:042AC4000D010008F8
:102AC8000008014000080140000801400004000817
:102AD8000010000000080140000801400008014003
:102AE80000080140000801400008014002000400FD
:102AF8000800100020004000000C0140000C0140BC
:102B0800000C0140000C014080000001000200049C
:102B180001000000020000000300000004000000A3
:0C2B28000024F400100000000100000078
:04000005080013EDEF
:00000001FF
