:020000040800F2
:1000000000280020A91100080111000807110008AC
:100010000D1100081311000819110008000000005C
:100020000000000000000000000000001F11000898
:100030002B110008000000003711000843110008D0
:10004000F1110008F1110008F1110008F111000888
:10005000F1110008F1110008F1110008F111000878
:10006000F1110008F1110008F1110008F111000868
:10007000F1110008F1110008F1110008F111000858
:10008000F1110008F1110008F1110008F111000848
:10009000F1110008F1110008F1110008F111000838
:1000A000F1110008F1110008F1110008F111000828
:1000B00051110008F111000800000000F1110008C2
:1000C000F11100080000000000000000F11100081C
:1000D00000000000F1110008F1110008000000000C
:1000E000F1110008F1110008F111000800000000F2
:1000F0000000000000000000000000000000000000
:0C01000000000000000000005FF808F1A3
:10010C0010B5054C237833B9044B13B10448AFF345
:10011C0000800123237010BD6C0000200000000043
:10012C004028000808B5034B1BB103490348AFF343
:10013C00008008BD0000000070000020402800086E
:10014C0080B500AF0B4B09221A600A4B09225A608A
:10015C00094B01221A600021002000F0BDF9012199
:10016C00002000F0B9F90221FA2000F02BFF00BFAB
:10017C0080BD00BF940000209C00002080B582B0A0
:10018C0000AF7860424A7B6852F823300A3B032B5D
:10019C0079D801A252F823F0B5010008D501000866
:1001AC00110200084D0200087968002000F094F953
:1001BC00374A7B680B2142F82310364B1B68796851
:1001CC00184600F0FFFE5EE07968002000F084F92C
:1001DC00314A7B6852F82330012B0AD12C4A7B68B8
:1001EC000D2142F823102B4B9B687968184600F0C0
:1001FC00E9FE002000F052F90346012B3ED1FFF737
:10020C009FFF3BE07968012000F066F9224A7B6889
:10021C0052F82330012B0AD11D4A7B680B2142F87E
:10022C0023101C4B1B687968184600F0CBFE00208D
:10023C0000F034F90346012B22D1FFF781FF1FE0B8
:10024C007968022000F048F9134A7B6852F8233091
:10025C00012B0AD10E4A7B680C2142F823100D4B5E
:10026C005B687968184600F0ADFE002000F016F9C6
:10027C000346012B06D1FFF763FF03E000BF02E04A
:10028C0000BF00E000BF00BF0837BD4680BD00BF07
:10029C0094000020880000201001002080B500AFE1
:1002AC00334B1B68032B38D0032B5ED8012B02D0A9
:1002BC00022B19D059E02F4B9B68012B02D1002047
:1002CC0000F0B6FA002000F0E9F80346012B47D104
:1002DC00274B02221A600021012000F0FDF80121B9
:1002EC00012000F0F9F83BE0224B9B68012B02D176
:1002FC00012000F09DFA002000F0D0F80346012BFD
:10030C0030D11B4B03221A600021022000F0E4F8CC
:10031C000121022000F0E0F824E0164B9B68012B31
:10032C0002D1022000F084FA002000F0B7F8034656
:10033C00012B19D1104B0B221A60104B1B6800219A
:10034C00184600F03FFE0C4B0D225A600B4B9B687D
:10035C000121184600F036FE054B00221A6003E01E
:10036C0000BF02E000BF00E000BF00BF80BD00BFC7
:10037C009C00002010010020940000208800002028
:10038C0080B483B000AF0346FB71FB79034A0121B3
:10039C00D15400BF0C37BD4680BC7047B000002064
:1003AC0080B582B000AF00237B6062E0354A7B6889
:1003BC0013441978344A7B6813440A461A70334A3A
:1003CC007B6852F8232032497B6831F81330194688
:1003DC00104601F0F5F9034619462A4A7B68134486
:1003EC000A461A70274A7B6813441A7826497B6898
:1003FC000B441B789A4239D1264A7B6813441A78ED
:10040C0020497B680B441B789A4219D01D4A7B68A3
:10041C00134419781F4A7B6813440A461A701D4A04
:10042C007B6813441B78002B20D17B68DBB2184609
:10043C00FFF7A6FF184A7B68134464221A7015E074
:10044C00154A7B6813441B78013BD9B2124A7B686E
:10045C0013440A461A70104A7B6813441B78002B0D
:10046C0004D10C4A7B68134401221A707B68013357
:10047C007B607B68022B99D900BF00BF0837BD4653
:10048C0080BD00BFA8000020AC00002000000020B0
:10049C000C000020A4000020B400002080B483B025
:1004AC0000AF0346FB71FB79022B01D900230BE053
:1004BC00FB79084AD35C012B05D1FB79054A002155
:1004CC00D154012300E0002318460C37BD4680BCF4
:1004DC00704700BFB000002080B582B000AF7860DC
:1004EC0039607B68002B03D07B68012B41D081E005
:1004FC0063493A6813465B0013449B000B4418682D
:10050C0060493A6813465B0013445B000B441B883C
:10051C000022194601F06BF959493A6813465B0001
:10052C0013449B000B440433186856493A6813462D
:10053C005B0013445B000B4402331B8801221946F9
:10054C0001F055F94E493A6813465B0013449B0081
:10055C000B44083318684B493A6813465B00134444
:10056C005B000B4404331B880122194601F03FF950
:10057C0081E043493A6813465B0013449B000B44EB
:10058C00186840493A6813465B0013445B000B44FF
:10059C001B880122194601F02AF939493A68134699
:1005AC005B0013449B000B440433186835493A68CC
:1005BC0013465B0013445B000B4402331B88002280
:1005CC00194601F014F92E493A6813465B0013449E
:1005DC009B000B44083318682A493A6813465B00A1
:1005EC0013445B000B4404331B880122194601F0B1
:1005FC00FEF840E022493A6813465B0013449B0026
:10060C000B4418681F493A6813465B0013445B009F
:10061C000B441B880122194601F0E9F818493A6885
:10062C0013465B0013449B000B44043318681549B4
:10063C003A6813465B0013445B000B4402331B887F
:10064C000122194601F0D3F80D493A6813465B00B4
:10065C0013449B000B44083318680A493A68134644
:10066C005B0013445B000B4404331B8800221946C7
:10067C0001F0BDF800BF00BF0837BD4680BD00BF0C
:10068C00140000202C00002080B582B000AF7860F0
:10069C0039607B68002B03D07B68012B40D07FE056
:1006AC0061493A6813465B0013449B000B4418687D
:1006BC005E493A6813465B0013445B000B441B888D
:1006CC00194601F0ACF858493A6813465B001344DC
:1006DC009B000B440433186854493A6813465B007A
:1006EC0013445B000B4402331B880122194601F0B2
:1006FC007EF84D493A6813465B0013449B000B444B
:10070C000833186849493A6813465B0013445B0088
:10071C000B4404331B880122194601F068F87FE072
:10072C0041493A6813465B0013449B000B4418681C
:10073C003E493A6813465B0013445B000B441B882C
:10074C000122194601F053F837493A6813465B0009
:10075C0013449B000B440433186834493A6813461D
:10076C005B0013445B000B4402331B88194601F0F9
:10077C0056F82D493A6813465B0013449B000B4412
:10078C000833186829493A6813465B0013445B0028
:10079C000B4404331B880122194601F028F83FE072
:1007AC0021493A6813465B0013449B000B441868BC
:1007BC001E493A6813465B0013445B000B441B88CC
:1007CC000122194601F013F817493A6813465B00E9
:1007DC0013449B000B440433186814493A681346BD
:1007EC005B0013445B000B4402331B880122194647
:1007FC0000F0FDFF0C493A6813465B0013449B0064
:10080C000B440833186809493A6813465B001344D3
:10081C005B000B4404331B88194601F000F800BF41
:10082C0000BF0837BD4680BD140000202C000020FE
:10083C0080B582B000AF786000217868FFF724FFA4
:10084C0001217868FFF720FF0221FA2000F0BAFBA3
:10085C0000BF0837BD4680BD80B500AF1B4B41F2D1
:10086C0088321A60194B4FF4FA625A60174B40F6F3
:10087C00B8329A60164B0B221A60144B1B6800217D
:10088C00184600F09FFB124B0D225A600F4B9B68D1
:10089C000121184600F096FB0321FA2000F092FB90
:1008AC0000F0A2FC00F018F800F09EF800F050F8F0
:1008BC00084801F0FBFB0020FFF760FC0120FFF76C
:1008CC005DFCFFF7EBFC00F05BFBF4E7880000201D
:1008DC0094000020B800002080B590B000AF07F164
:1008EC00180328220021184601F078FF3B1D002236
:1008FC001A605A609A60DA601A610223BB610123A4
:10090C00BB621023FB6200237B6307F118031846BC
:10091C0000F09EFF0346002B01D000F0C7F80F2318
:10092C007B600023BB600023FB6000233B61002342
:10093C007B613B1D0021184601F00CFA0346002B8D
:10094C0001D000F0B3F800BF4037BD4680BD0000B9
:10095C0080B586B000AF07F1080300221A605A6018
:10096C009A60DA603B4600221A605A601D4B4FF0C9
:10097C0080421A601B4B41F63F725A60194B0022A1
:10098C009A60184B0922DA60164B00221A61154B3B
:10099C0000229A61134801F039FB0346002B01D069
:1009AC0000F084F84FF48053BB6007F1080319463C
:1009BC000C4801F0CFFC0346002B01D000F076F878
:1009CC0000233B6000237B603B461946054801F041
:1009DC009BFE0346002B01D000F068F800BF1837CF
:1009EC00BD4680BDB800002080B586B000AF07F1D1
:1009FC00080300221A605A609A60DA60284B9B69DF
:100A0C00274A43F004039361254B9B6903F00403CD
:100A1C007B607B68224B9B69214A43F008039361FE
:100A2C001F4B9B6903F008033B603B6800227E214F
:100A3C001C4800F0DCFE002240F2FF711A4800F066
:100A4C00D6FE7E23BB600123FB6000233B610223A7
:100A5C007B6107F108031946124800F035FD40F29E
:100A6C00FF73BB600123FB6000233B6102237B61AE
:100A7C0007F1080319460C4800F026FD4FF4E0532B
:100A8C00BB600023FB6001233B6107F1080319469F
:100A9C00044800F019FD00BF1837BD4680BD00BFEB
:100AAC000010024000080140000C014080B400AF6F
:100ABC0072B600BFFEE7000080B582B000AF786070
:100ACC007B68092B00F2808101A252F823F000BF51
:100ADC00050B00084D0B0008950B0008DD0B0008FA
:100AEC00250C00086D0C0008B50C0008FD0C000866
:100AFC00450D00088D0D000800220121C64800F0AC
:100B0C0076FE00220221C44800F071FE002204216E
:100B1C00C14800F06CFE00220821BF4800F067FEBF
:100B2C0000221021BC4800F062FE00222021BA48AD
:100B3C0000F05DFE01224021B74800F058FE67E14D
:100B4C0001220121B44800F052FE00220221B248D9
:100B5C0000F04DFE00220421AF4800F048FE0122B7
:100B6C000821AD4800F043FE01221021AA4800F0F4
:100B7C003EFE01222021A84800F039FE012240212E
:100B8C00A54800F034FE43E100220121A24800F008
:100B9C002EFE00220221A04800F029FE0122042191
:100BAC009D4800F024FE002208219B4800F01FFE07
:100BBC0000221021984800F01AFE012220219648AC
:100BCC0000F015FE00224021934800F010FE1FE1BA
:100BDC0000220121904800F00AFE002202218E48DA
:100BEC0000F005FE002204218B4800F000FE0022DC
:100BFC000821894800F0FBFD01221021864800F0F5
:100C0C00F6FD01222021844800F0F1FD0022402154
:100C1C00814800F0ECFDFBE0012201217E4800F050
:100C2C00E6FD002202217C4800F0E1FD00220421B7
:100C3C00794800F0DCFD01220821774800F0D7FD4F
:100C4C0001221021744800F0D2FD002220217248AC
:100C5C0000F0CDFD002240216F4800F0C8FDD7E028
:100C6C00002201216C4800F0C2FD012202216A48D9
:100C7C0000F0BDFD00220421674800F0B8FD002201
:100C8C000821654800F0B3FD01221021624800F0F4
:100C9C00AEFD00222021604800F0A9FD0022402179
:100CAC005D4800F0A4FDB3E0002201215A4800F099
:100CBC009EFD01220221584800F099FD00220421DA
:100CCC00554800F094FD00220821534800F08FFD98
:100CDC0000221021504800F08AFD002220214E48AD
:100CEC0000F085FD002240214B4800F080FD8FE094
:100CFC0000220121484800F07AFD002202214648DA
:100D0C0000F075FD00220421434800F070FD012223
:100D1C000821414800F06BFD012210213E4800F0F3
:100D2C0066FD012220213C4800F061FD012240219A
:100D3C00394800F05CFD6BE000220121364800F0E0
:100D4C0056FD00220221344800F051FD00220421FE
:100D5C00314800F04CFD002208212F4800F047FDDF
:100D6C00002210212C4800F042FD002220212A48AC
:100D7C0000F03DFD00224021274800F038FD47E0FF
:100D8C0000220121244800F032FD002202212248D9
:100D9C0000F02DFD002204211F4800F028FD002248
:100DAC0008211D4800F023FD012210211A4800F0F3
:100DBC001EFD00222021184800F019FD00224021C0
:100DCC00154800F014FD23E000220121124800F028
:100DDC000EFD01220221104800F009FD0122042120
:100DEC000D4800F004FD002208210B4800F0FFFC28
:100DFC0000221021084800F0FAFC002220210648AD
:100E0C0000F0F5FC00224021034800F0F0FC00BF8C
:100E1C0000BF0837BD4680BD000C014080B582B0D4
:100E2C0000AF78607B68022B4BD07B68022B69DCAF
:100E3C007B68002B03D07B68012B21D062E0444BF4
:100E4C001B68444A11880022184600F0D0FC404B25
:100E5C005B68404A51880122184600F0C8FC3C4BA4
:100E6C009B683C4A91880122184600F0C0FC384B24
:100E7C00DB68384AD1880122184600F0B8FC62E0E1
:100E8C00334B1B68334A11880122184600F0AFFC23
:100E9C002F4B5B682F4A51880022184600F0A7FCA4
:100EAC002B4B9B682B4A91880122184600F09FFC23
:100EBC00274BDB68274AD1880122184600F097FCA3
:100ECC0041E0234B1B68234A11880122184600F08D
:100EDC008EFC1F4B5B681F4A51880122184600F09C
:100EEC0086FC1B4B9B681B4A91880022184600F01D
:100EFC007EFC174BDB68174AD1880122184600F09C
:100F0C0076FC20E0124B1B68124A1188012218460D
:100F1C0000F06DFC0E4B5B680E4A5188012218469E
:100F2C0000F065FC0A4B9B680A4A9188012218461E
:100F3C0000F05DFC064BDB68064AD188002218469F
:100F4C0000F055FC00BF00BF0837BD4680BD00BF98
:100F5C00380000204800002080B582B000AF7860D7
:100F6C00064A7B6852F823301846FFF7A5FD7868CF
:100F7C00FFF754FF00BF0837BD4680BD500000206E
:100F8C0080B500AF0D4B1B681846FFF7E5FF0C4B07
:100F9C00DB68012B0FD10321FA2000F013F8074B6B
:100FAC001B680133054A1360044B1B68032B02D9E1
:100FBC00024B00221A6000BF80BD00BFA0000020C1
:100FCC001001002080B483B000AF786039607B687A
:100FDC00094A82FB03129210DB17D21A07493B68AD
:100FEC0041F82320064A3B68002142F8231000BF39
:100FFC000C37BD4680BC70476766666600010020F2
:10100C001001002080B483B000AF78600C4A7B687C
:10101C0052F823305A1E0A497B6841F82320084AAB
:10102C007B6852F82330002B04DC064A7B680121D4
:10103C0042F8231000BF0C37BD4680BC704700BF80
:10104C00000100201001002080B485B000AF154BCA
:10105C009B69144A43F001039361124B9B6903F0A3
:10106C000103BB60BB680F4BDB690E4A43F0805336
:10107C00D3610C4BDB6903F080537B607B680A4BBC
:10108C005B68FB60FB6823F0E063FB60FB6843F08C
:10109C000073FB60044AFB68536000BF1437BD4605
:1010AC0080BC7047001002400000014080B584B045
:1010BC0000AF78607B681B68B3F1804F13D10C4B89
:1010CC00DB690B4A43F00103D361094BDB6903F085
:1010DC000103FB60FB68002200211C2000F0BDF91D
:1010EC001C2000F0D6F900BF1037BD4680BD00BFF4
:1010FC000010024080B400AFFEE780B400AFFEE702
:10110C0080B400AFFEE780B400AFFEE780B400AF60
:10111C00FEE780B400AF00BFBD4680BC704780B412
:10112C0000AF00BFBD4680BC704780B400AF00BFAD
:10113C00BD4680BC704780B500AF00F09BF800BF87
:10114C0080BD000080B500AF024800F0FBFF00BF7F
:10115C0080BD00BFB800002080B400AF00BFBD460A
:10116C0080BC704780B582B000AF78607B681B682C
:10117C00B3F1804F0DD10020FFF744FF0120FFF7A2
:10118C0041FF0220FFF73EFF0320FFF73BFFFFF775
:10119C0007F900BF0837BD4680BD0000FFF7DCFF34
:1011AC000B480C490C4A002302E0D458C4500433B9
:1011BC00C4188C42F9D3094A094C002301E013608E
:1011CC000432A242FBD301F011FBFFF745FB704741
:1011DC00000000206C000020842800086C00002017
:1011EC0024010020FEE7000080B500AF084B1B680F
:1011FC00074A43F010031360032000F023F90F207B
:10120C0000F008F8FFF720FF0023184680BD00BF50
:10121C000020024080B582B000AF7860124B1A6893
:10122C00124B1B7819464FF47A73B3FBF1F3B2FBF4
:10123C00F3F3184600F03BF90346002B01D00123D1
:10124C000EE07B680F2B0AD8002279684FF0FF3034
:10125C0000F003F9064A7B681360002300E00123C9
:10126C0018460837BD4680BD60000020680000208D
:10127C006400002080B400AF054B1B781A46054B68
:10128C001B681344034A136000BFBD4680BC704703
:10129C00680000202001002080B400AF024B1B68C6
:1012AC001846BD4680BC70472001002080B485B034
:1012BC0000AF78607B6803F00703FB600C4BDB68C6
:1012CC00BB60BA684FF6FF031340BB60FB681A02A1
:1012DC00BB68134343F0BF6343F40033BB60044A61
:1012EC00BB68D36000BF1437BD4680BC704700BFDD
:1012FC0000ED00E080B400AF044BDB681B0A03F088
:10130C0007031846BD4680BC704700BF00ED00E0E7
:10131C0080B483B000AF0346FB7197F90730002B04
:10132C000BDBFB7903F01F02064997F907305B09C9
:10133C00012000FA02F241F8232000BF0C37BD4611
:10134C0080BC704700E100E080B483B000AF03467E
:10135C003960FB7197F90730002B0ADB3B68DAB276
:10136C000C4997F907301201D2B20B4483F80023D1
:10137C000AE03B68DAB20849FB7903F00F03043B3F
:10138C001201D2B20B441A7600BF0C37BD4680BC9A
:10139C00704700BF00E100E000ED00E080B489B0D0
:1013AC0000AFF860B9607A60FB6803F00703FB617B
:1013BC00FB69C3F10703042B28BF0423BB61FB6942
:1013CC000433062B02D9FB69033B00E000237B614D
:1013DC004FF0FF32BB6902FA03F3DA43BB681A40E1
:1013EC007B699A404FF0FF317B6901FA03F3D943D3
:1013FC007B680B40134318462437BD4680BC7047AE
:10140C0080B582B000AF78607B68013BB3F1807F20
:10141C0001D301230FE00A4A7B68013B53600F2183
:10142C004FF0FF30FFF790FF054B00229A60044B02
:10143C0007221A60002318460837BD4680BD00BF3E
:10144C0010E000E080B582B000AF78607868FFF7FC
:10145C002DFF00BF0837BD4680BD80B586B000AFFC
:10146C000346B9607A60FB7300237B61FFF742FF90
:10147C0078617A68B9687869FFF790FF024697F946
:10148C000F3011461846FFF75FFF00BF1837BD46F7
:10149C0080BD80B582B000AF0346FB7197F9073071
:1014AC001846FFF735FF00BF0837BD4680BD80B535
:1014BC0082B000AF78607868FFF7A2FF0346184649
:1014CC000837BD4680BD000080B48BB000AF78609B
:1014DC00396000237B6200233B6261E101227B6A5D
:1014EC0002FA03F3FB613B681B68FA691340BB61AA
:1014FC00BA69FB699A4240F050813B685B68974A35
:10150C0093425ED0954A934275D8954A934258D0EF
:10151C00934A93426FD8934A934252D0914A934242
:10152C0069D8914A93424CD08F4A934263D88F4AE0
:10153C00934246D08D4A93425DD8122B2AD8122B57
:10154C0059D801A252F823F0CF150008A9150008AC
:10155C00BB150008FD15000803160008031600084B
:10156C0003160008031600080316000803160008EB
:10157C0003160008031600080316000803160008DB
:10158C00031600080316000803160008B11500081E
:10159C00C5150008764A934213D02CE03B68DB68F3
:1015AC003B6229E03B68DB6804333B6224E03B6828
:1015BC00DB6808333B621FE03B68DB680C333B6243
:1015CC001AE03B689B68002B02D104233B6213E0BA
:1015DC003B689B68012B05D108233B627B68FA6949
:1015EC001A6109E008233B627B68FA695A6103E0DF
:1015FC0000233B6200E000BFBB69FF2B01D87B6876
:10160C0001E07B6804337B61BB69FF2B02D87B6AEA
:10161C009B0002E07B6A083B9B003B617B691A687C
:10162C000F213B6901FA03F3DB431A40396A3B692A
:10163C0001FA03F31A437B691A603B685B6803F099
:10164C008053002B00F0A9804A4B9B69494A43F018
:10165C0001039361474B9B6903F00103BB60BB68BB
:10166C00454A7B6A9B08023352F82330FB607B6A45
:10167C0003F003039B000F2202FA03F3DB43FA6827
:10168C001340FB607B683D4A93420DD07B683C4A1B
:10169C00934207D07B683B4A934201D1022304E07A
:1016AC00032302E0012300E000237A6A02F0030224
:1016BC0092009340FA681343FB602F497B6A9B08A6
:1016CC000233FA6841F823203B685B6803F480130B
:1016DC00002B06D02C4B9A682B49BB6913438B60AB
:1016EC0006E0294B9A68BB69DB43274913408B60A2
:1016FC003B685B6803F40013002B06D0224BDA68BE
:10170C002149BB691343CB6006E01F4BDA68BB6908
:10171C00DB431D491340CB603B685B6803F400332B
:10172C00002B06D0184B5A681749BB6913434B6002
:10173C0006E0154B5A68BB69DB43134913404B60F9
:10174C003B685B6803F48033002B1FD00E4B1A6888
:10175C000D49BB6913430B601FE000BF0000321042
:10176C0000003110000022100000211000001210A7
:10177C000000111000100240000001400008014060
:10178C00000C014000100140000401400B4B1A6892
:10179C00BB69DB43094913400B607B6A01337B62F5
:1017AC003B681A687B6A22FA03F3002B7FF496AE2F
:1017BC0000BF00BF2C37BD4680BC70470004014001
:1017CC0080B485B000AF78600B467B807B689A68EC
:1017DC007B881340002B02D00123FB7301E0002314
:1017EC00FB73FB7B18461437BD4680BC704780B436
:1017FC0083B000AF78600B467B8013467B707B78A0
:10180C00002B03D07A887B681A6103E07B881A046A
:10181C007B681A6100BF0C37BD4680BC704780B432
:10182C0085B000AF78600B467B807B68DB68FB6023
:10183C007A88FB6813401A04FB68D9437B880B40F9
:10184C001A437B681A6100BF1437BD4680BC7047D1
:10185C0080B586B000AF78607B68002B01D1012386
:10186C0072E27B681B6803F00103002B00F0878099
:10187C00924B5B6803F00C03042B0CD08F4B5B6812
:10188C0003F00C03082B12D18C4B5B6803F48033F0
:10189C00B3F5803F0BD1894B1B6803F40033002B4D
:1018AC006CD07B685B68002B68D101234CE27B68B1
:1018BC005B68B3F5803F06D1804B1B687F4A43F4CD
:1018CC00803313602EE07B685B68002B0CD17B4B64
:1018DC001B687A4A23F480331360784B1B68774A71
:1018EC0023F4802313601DE07B685B68B3F5A02FA5
:1018FC000CD1724B1B68714A43F4802313606F4BFD
:10190C001B686E4A43F4803313600BE06B4B1B680F
:10191C006A4A23F480331360684B1B68674A23F4CC
:10192C00802313607B685B68002B13D0FFF7B4FC3B
:10193C00386108E0FFF7B0FC02463B69D31A642B10
:10194C0001D9032300E25D4B1B6803F40033002B29
:10195C00F0D014E0FFF7A0FC386108E0FFF79CFC26
:10196C0002463B69D31A642B01D90323ECE1534B98
:10197C001B6803F40033002BF0D100E000BF7B6840
:10198C001B6803F00203002B63D04C4B5B6803F025
:10199C000C03002B0BD0494B5B6803F00C03082B9A
:1019AC001CD1464B5B6803F48033002B16D1434BA0
:1019BC001B6803F00203002B05D07B681B69012B0D
:1019CC0001D00123C0E13D4B1B6823F0F8027B687A
:1019DC005B69DB00394913430B603AE07B681B6998
:1019EC00002B20D0364B01221A60FFF755FC3861D2
:1019FC0008E0FFF751FC02463B69D31A022B01D9D0
:101A0C000323A1E12D4B1B6803F00203002BF0D044
:101A1C002A4B1B6823F0F8027B685B69DB002749C3
:101A2C0013430B6015E0264B00221A60FFF734FCC1
:101A3C00386108E0FFF730FC02463B69D31A022BF1
:101A4C0001D9032380E11D4B1B6803F00203002B1B
:101A5C00F0D17B681B6803F00803002B3AD07B683D
:101A6C009B69002B19D0174B01221A60FFF714FC4D
:101A7C00386108E0FFF710FC02463B69D31A022BD1
:101A8C0001D9032360E10D4B5B6A03F00203002BC9
:101A9C00F0D0012000F09CFA1CE00A4B00221A60E6
:101AAC00FFF7FAFB38610FE0FFF7F6FB02463B69E4
:101ABC00D31A022B08D9032346E100BF00100240C1
:101ACC000000424280044242924B5B6A03F00203E4
:101ADC00002BE9D17B681B6803F00403002B00F09A
:101AEC00A6800023FB758B4BDB6903F08053002B26
:101AFC000DD1884BDB69874A43F08053D361854B0A
:101B0C00DB6903F08053BB60BB680123FB75824B20
:101B1C001B6803F48073002B18D17F4B1B687E4A23
:101B2C0043F480731360FFF7B7FB386108E0FFF7ED
:101B3C00B3FB02463B69D31A642B01D9032303E19F
:101B4C00754B1B6803F48073002BF0D07B68DB684B
:101B5C00012B06D16F4B1B6A6E4A43F001031362D3
:101B6C002DE07B68DB68002B0CD16A4B1B6A694A41
:101B7C0023F001031362674B1B6A664A23F00403CC
:101B8C0013621CE07B68DB68052B0CD1614B1B6A74
:101B9C00604A43F0040313625E4B1B6A5D4A43F0D8
:101BAC00010313620BE05B4B1B6A5A4A23F00103DF
:101BBC001362584B1B6A574A23F0040313627B6869
:101BCC00DB68002B15D0FFF767FB38610AE0FFF7E5
:101BDC0063FB02463B69D31A41F28832934201D926
:101BEC000323B1E04B4B1B6A03F00203002BEED036
:101BFC0014E0FFF751FB38610AE0FFF74DFB02469A
:101C0C003B69D31A41F28832934201D903239BE0FA
:101C1C00404B1B6A03F00203002BEED1FB7D012B22
:101C2C0005D13C4BDB693B4A23F08053D3617B6885
:101C3C00DB69002B00F08780364B5B6803F00C03EC
:101C4C00082B61D07B68DB69022B46D1334B002219
:101C5C001A60FFF721FB386108E0FFF71DFB024615
:101C6C003B69D31A022B01D903236DE0294B1B6866
:101C7C0003F00073002BF0D17B681B6AB3F5803F37
:101C8C0008D1244B5B6823F400327B689B682149A4
:101C9C0013434B601F4B5B6823F474127B68196A07
:101CAC007B685B6A0B431B4913434B601B4B012244
:101CBC001A60FFF7F1FA386108E0FFF7EDFA024617
:101CCC003B69D31A022B01D903233DE0114B1B684E
:101CDC0003F00073002BF0D035E0104B00221A609B
:101CEC00FFF7DAFA386108E0FFF7D6FA02463B69EB
:101CFC00D31A022B01D9032326E0064B1B6803F0F1
:101D0C000073002BF0D11EE07B68DB69012B07D13F
:101D1C00012319E0001002400070004060004242B4
:101D2C000B4B5B68FB60FB6803F480327B681B6ABF
:101D3C009A4206D1FB6803F470127B685B6A9A4284
:101D4C0001D0012300E0002318461837BD4680BDA2
:101D5C000010024080B584B000AF786039607B68B9
:101D6C00002B01D10123D0E06A4B1B6803F0070361
:101D7C003A689A4210D9674B1B6823F007026549F1
:101D8C003B6813430B60634B1B6803F007033A6813
:101D9C009A4201D00123B8E07B681B6803F0020370
:101DAC00002B20D07B681B6803F00403002B05D0AC
:101DBC00594B5B68584A43F4E06353607B681B687B
:101DCC0003F00803002B05D0534B5B68524A43F4D5
:101DDC0060535360504B5B6823F0F0027B689B6848
:101DEC004D4913434B607B681B6803F00103002BC8
:101DFC0040D07B685B68012B07D1474B1B6803F411
:101E0C000033002B15D101237FE07B685B68022B2C
:101E1C0007D1414B1B6803F00073002B09D1012340
:101E2C0073E03D4B1B6803F00203002B01D101232F
:101E3C006BE0394B5B6823F003027B685B683649C7
:101E4C0013434B60FFF728FAF8600AE0FFF724FA17
:101E5C000246FB68D31A41F28832934201D903231C
:101E6C0053E02D4B5B6803F00C027B685B689B00B6
:101E7C009A42EBD1274B1B6803F007033A689A424E
:101E8C0010D2244B1B6823F0070222493B681343F2
:101E9C000B60204B1B6803F007033A689A4201D091
:101EAC00012332E07B681B6803F00403002B08D08D
:101EBC00194B5B6823F4E0627B68DB6816491343BB
:101ECC004B607B681B6803F00803002B09D0124B96
:101EDC005B6823F460527B681B69DB000E4913437B
:101EEC004B6000F021F802460B4B5B681B0903F0BA
:101EFC000F030A49CB5C22FA03F3094A1360094B1E
:101F0C001B681846FFF786F9002318461037BD46A4
:101F1C0080BD00BF0020024000100240582800087D
:101F2C00600000206400002080B487B000AF002364
:101F3C00FB600023BB6000237B6100237B600023DC
:101F4C003B611E4B5B68FB60FB6803F00C03042BCE
:101F5C0002D0082B03D027E0194B3B6127E0FB682C
:101F6C009B0C03F00F03174AD35C7B60FB6803F4F4
:101F7C008033002B10D0114B5B685B0C03F001031A
:101F8C00114AD35CBB607B680D4A03FB02F2BB6851
:101F9C00B2FBF3F37B6104E07B680C4A02FB03F3B6
:101FAC007B617B693B6102E0054B3B6100BF3B6998
:101FBC0018461C37BD4680BC704700BF001002405D
:101FCC0000127A00682800087828000800093D00F3
:101FDC0080B485B000AF78600A4B1B680A4AA2FB3C
:101FEC0003235B0A7A6802FB03F3FB6000BFFB6808
:101FFC005A1EFA60002BF9D100BF00BF1437BD4642
:10200C0080BC704760000020D34D621080B582B058
:10201C0000AF78607B68002B01D1012341E07B6825
:10202C0093F83D30DBB2002B06D17B68002283F89D
:10203C003C207868FFF73AF87B68022283F83D2051
:10204C007B681A687B6804331946104600F06EFAF8
:10205C007B68012283F846207B68012283F83E20AE
:10206C007B68012283F83F207B68012283F84020A3
:10207C007B68012283F841207B68012283F842208F
:10208C007B68012283F843207B68012283F844207B
:10209C007B68012283F845207B68012283F83D2070
:1020AC00002318460837BD4680BD000080B485B0BB
:1020BC0000AF78607B6893F83D30DBB2012B01D028
:1020CC00012335E07B68022283F83D207B681B6886
:1020DC00DA687B681B6842F00102DA607B681B6877
:1020EC00164A934209D07B681B68B3F1804F04D029
:1020FC007B681B68124A934211D17B681B689B68F2
:10210C0003F00703FB60FB68062B10D07B681B6891
:10211C001A687B681B6842F001021A6007E07B6852
:10212C001B681A687B681B6842F001021A60002366
:10213C0018461437BD4680BC704700BF002C0140C8
:10214C000004004080B582B000AF78607B681B68EB
:10215C001B6903F00203022B22D17B681B68DB682E
:10216C0003F00203022B1BD17B681B686FF0020289
:10217C001A617B6801221A777B681B689B6903F0E4
:10218C000303002B03D0786800F0B4F905E07868FD
:10219C0000F0A7F9786800F0B6F97B6800221A778E
:1021AC007B681B681B6903F00403042B22D17B683A
:1021BC001B68DB6803F00403042B1BD17B681B68D2
:1021CC006FF004021A617B6802221A777B681B6825
:1021DC009B6903F44073002B03D0786800F08AF9F4
:1021EC0005E0786800F07DF9786800F08CF97B6880
:1021FC0000221A777B681B681B6903F00803082B05
:10220C0022D17B681B68DB6803F00803082B1BD109
:10221C007B681B686FF008021A617B6804221A77CE
:10222C007B681B68DB6903F00303002B03D0786821
:10223C0000F060F905E0786800F053F9786800F078
:10224C0062F97B6800221A777B681B681B6903F0B4
:10225C001003102B22D17B681B68DB6803F0100382
:10226C00102B1BD17B681B686FF010021A617B6806
:10227C0008221A777B681B68DB6903F44073002B18
:10228C0003D0786800F036F905E0786800F029F999
:10229C00786800F038F97B6800221A777B681B6835
:1022AC001B6903F00103012B0ED17B681B68DB68F3
:1022BC0003F00103012B07D17B681B686FF001024F
:1022CC001A617868FEF74EFF7B681B681B6903F088
:1022DC008003802B0ED17B681B68DB6803F08003C6
:1022EC00802B07D17B681B686FF080021A617868BD
:1022FC0000F06BFA7B681B681B6903F04003402BF2
:10230C000ED17B681B68DB6803F04003402B07D1C0
:10231C007B681B686FF040021A61786800F0FCF86B
:10232C007B681B681B6903F02003202B0ED17B6894
:10233C001B68DB6803F02003202B07D17B681B682C
:10234C006FF020021A61786800F036FA00BF083787
:10235C00BD4680BD80B584B000AF78603960002385
:10236C00FB737B6893F83C30012B01D10223B4E062
:10237C007B68012283F83C207B68022283F83D2095
:10238C007B681B689B68BB60BB6823F07703BB60F2
:10239C00BB6823F47F43BB607B681B68BA689A6098
:1023AC003B681B68B3F5005F3ED0B3F5005F00F2ED
:1023BC008780B3F5805F00F08680B3F5805F7FD8AF
:1023CC00702B1AD0702B7BD8602B50D0602B77D809
:1023DC00502B3CD0502B73D8402B58D0402B6FD85F
:1023EC00302B64D0302B6BD8202B60D0202B67D8AF
:1023FC00002B5CD0102B5AD062E07B6818683B68CD
:10240C0099683B685A683B68DB6800F05EF97B684A
:10241C001B689B68BB60BB6843F07703BB607B6841
:10242C001B68BA689A604FE07B6818683B689968CB
:10243C003B685A683B68DB6800F047F97B681B68AF
:10244C009A687B681B6842F480429A603CE07B6827
:10245C0018683B6859683B68DB681A4600F0BEF8A0
:10246C007B681B685021184600F015F92CE07B683E
:10247C0018683B6859683B68DB681A4600F0DCF862
:10248C007B681B686021184600F005F91CE07B682E
:10249C0018683B6859683B68DB681A4600F09EF880
:1024AC007B681B684021184600F0F5F80CE07B684F
:1024BC001A683B681B681946104600F0ECF803E0FC
:1024CC000123FB7300E000BF7B68012283F83D20F1
:1024DC007B68002283F83C20FB7B18461037BD46F6
:1024EC0080BD80B483B000AF786000BF0C37BD46B0
:1024FC0080BC704780B483B000AF786000BF0C37ED
:10250C00BD4680BC704780B483B000AF786000BF1C
:10251C000C37BD4680BC704780B483B000AF786088
:10252C0000BF0C37BD4680BC7047000080B485B03E
:10253C0000AF786039607B681B68FB607B68254A5C
:10254C00934207D07B68B3F1804F03D07B68224A5B
:10255C00934208D1FB6823F07003FB603B685B6817
:10256C00FA681343FB607B681A4A934207D07B6876
:10257C00B3F1804F03D07B68174A934208D1FB68B4
:10258C0023F44073FB603B68DB68FA681343FB6021
:10259C00FB6823F080023B685B691343FB607B683C
:1025AC00FA681A603B689A687B68DA623B681A685A
:1025BC007B689A627B68074A934203D13B681A692D
:1025CC007B681A637B6801225A6100BF1437BD46D1
:1025DC0080BC7047002C01400004004080B487B0E0
:1025EC0000AFF860B9607A60FB681B6A7B61FB68BE
:1025FC001B6A23F00102FB681A62FB689B693B6152
:10260C003B6923F0F0033B617B681B013A69134380
:10261C003B617B6923F00A037B617A69BB681343D6
:10262C007B61FB683A699A61FB687A691A6200BF40
:10263C001C37BD4680BC704780B487B000AFF860D3
:10264C00B9607A60FB681B6A7B61FB681B6A23F0CC
:10265C001002FB681A62FB689B693B613B6923F4BF
:10266C0070433B617B681B033A6913433B617B6995
:10267C0023F0A0037B61BB681B017A6913437B6168
:10268C00FB683A699A61FB687A691A6200BF1C3769
:10269C00BD4680BC704780B485B000AF78603960AF
:1026AC007B689B68FB60FB6823F07003FB603A68F7
:1026BC00FB68134343F00703FB607B68FA689A607E
:1026CC0000BF1437BD4680BC704780B487B000AFE4
:1026DC00F860B9607A603B60FB689B687B617B69E2
:1026EC0023F47F437B613B681A027B681A43BB6807
:1026FC0013437A6913437B61FB687A699A6000BF64
:10270C001C37BD4680BC704780B485B000AF786084
:10271C0039607B6893F83C30012B01D1022341E0F6
:10272C007B68012283F83C207B68022283F83D20E1
:10273C007B681B685B68FB607B681B689B68BB6085
:10274C00FB6823F07003FB603B681B68FA6813435B
:10275C00FB607B681B68FA685A607B681B68144ACC
:10276C00934209D07B681B68B3F1804F04D07B681F
:10277C001B68104A93420CD1BB6823F08003BB60EA
:10278C003B685B68BA681343BB607B681B68BA68BC
:10279C009A607B68012283F83D207B68002283F8D5
:1027AC003C20002318461437BD4680BC704700BF40
:1027BC00002C01400004004080B483B000AF78606E
:1027CC0000BF0C37BD4680BC704780B483B000AFEF
:1027DC00786000BF0C37BD4680BC7047034602448E
:1027EC00934200D1704703F8011BF9E770B500263E
:1027FC000C4D0D4C641BA410A64209D100F01AF824
:10280C0000260A4D0A4C641BA410A64205D170BDCB
:10281C0055F8043B98470136EEE755F8043B9847CA
:10282C000136F2E77C2800087C2800087C28000888
:10283C0080280008F8B500BFF8BC08BC9E4670475D
:0C284C00F8B500BFF8BC08BC9E46704701
:102858000000000000000000010203040607080948
:1028680002030405060708090A0B0C0D0E0F1010C9
:042878000102000059
:04287C00310100081E
:042880000D0100083E
:10288400000801400008014000080140000400085D
:102894000010000000080140000801400008014049
:1028A4000008014000080140000801400200040043
:1028B4000800100020004000000C0140000C014002
:1028C400000C0140000C01408000000100020004E3
:1028D40001000000020000000300000004000000EA
:0C28E4000024F4001000000001000000BF
:04000005080011A935
:00000001FF
